:020000040000fa
:080000000002040000000000f2
:020000040000fa
:040008002c040000c4
:020000040000fa
:04000c002c040000c0
:020000040000fa
:040010002c040000bc
:020000040000fa
:040014002c040000b8
:020000040000fa
:040018002c040000b4
:020000040000fa
:04001c002c040000b0
:020000040000fa
:040020002c040000ac
:020000040000fa
:040024002c040000a8
:020000040000fa
:040028002c040000a4
:020000040000fa
:04002c002c040000a0
:020000040000fa
:040030002c0400009c
:020000040000fa
:040034005403000071
:020000040000fa
:040038002c04000094
:020000040000fa
:04003c002c04000090
:020000040000fa
:040040002c0400008c
:020000040000fa
:040044002c04000088
:020000040000fa
:040048002c04000084
:020000040000fa
:04004c002c04000080
:020000040000fa
:040050002c0400007c
:020000040000fa
:04005400d8020000ce
:020000040000fa
:040058002c04000074
:020000040000fa
:04005c002c04000070
:020000040000fa
:040060002c0400006c
:020000040000fa
:040064002c04000068
:020000040000fa
:040068002c04000064
:020000040000fa
:04006c002c04000060
:020000040000fa
:040070002c0400005c
:020000040000fa
:040074002c04000058
:020000040000fa
:040078002c04000054
:020000040000fa
:04007c002c04000050
:020000040000fa
:040080002c0400004c
:020000040000fa
:040084002c04000048
:020000040000fa
:040088002c04000044
:020000040000fa
:04008c002c04000040
:020000040000fa
:040090002c0400003c
:020000040000fa
:040094002c04000038
:020000040000fa
:040098002c04000034
:020000040000fa
:04009c002c04000030
:020000040000fa
:0400a0001603000043
:020000040000fa
:0400a4002c04000028
:020000040000fa
:0400a8002c04000024
:020000040000fa
:0400ac002c04000020
:020000040000fa
:0400b0002c0400001c
:020000040000fa
:0400b4002c04000018
:020000040000fa
:0400b8002c04000014
:020000040000fa
:0400bc002c04000010
:020000040000fa
:0400c0002c0400000c
:020000040000fa
:0400c4002c04000008
:020000040000fa
:0400c8002c04000004
:020000040000fa
:0400cc002c04000000
:020000040000fa
:0400d0002c040000fc
:020000040000fa
:0400d4002c040000f8
:020000040000fa
:0400d8002c040000f4
:020000040000fa
:0400dc002c040000f0
:020000040000fa
:0400e0002c040000ec
:020000040000fa
:0400e4002c040000e8
:020000040000fa
:0400e8002c040000e4
:020000040000fa
:0400ec002c040000e0
:020000040000fa
:0400f0002c040000dc
:020000040000fa
:0400f4002c040000d8
:020000040000fa
:0400f8002c040000d4
:020000040000fa
:0400fc002c040000d0
:020000040000fa
:040100002c040000cb
:020000040000fa
:040104002c040000c7
:020000040000fa
:040108002c040000c3
:020000040000fa
:04010c002c040000bf
:020000040000fa
:040110002c040000bb
:020000040000fa
:040114002c040000b7
:020000040000fa
:040118002c040000b3
:020000040000fa
:04011c002c040000af
:020000040000fa
:040120002c040000ab
:020000040000fa
:040124002c040000a7
:020000040000fa
:040128002c040000a3
:020000040000fa
:04012c002c0400009f
:020000040000fa
:040130002c0400009b
:020000040000fa
:040134002c04000097
:020000040000fa
:040138002c04000093
:020000040000fa
:04013c002c0400008f
:020000040000fa
:040140002c0400008b
:020000040000fa
:040144002c04000087
:020000040000fa
:040148002c04000083
:020000040000fa
:04014c002c0400007f
:020000040000fa
:040150002c0400007b
:020000040000fa
:040154002c04000077
:020000040000fa
:040158002c04000073
:020000040000fa
:04015c002c0400006f
:020000040000fa
:040160002c0400006b
:020000040000fa
:040164002c04000067
:020000040000fa
:040208002c040000c2
:020000040000fa
:04020c002c040000be
:020000040000fa
:040210002c040000ba
:020000040000fa
:040214002c040000b6
:020000040000fa
:040218002c040000b2
:020000040000fa
:04021c002c040000ae
:020000040000fa
:040220002c040000aa
:020000040000fa
:040224002c040000a6
:020000040000fa
:040228002c040000a2
:020000040000fa
:04022c002c0400009e
:020000040000fa
:040230002c0400009a
:020000040000fa
:040234002c04000096
:020000040000fa
:040238002c04000092
:020000040000fa
:04023c002c0400008e
:020000040000fa
:040240002c0400008a
:020000040000fa
:040244002c04000086
:020000040000fa
:040248002c04000082
:020000040000fa
:04024c002c0400007e
:020000040000fa
:040250002c0400007a
:020000040000fa
:040254002c04000076
:020000040000fa
:040258002c04000072
:020000040000fa
:04025c002c0400006e
:020000040000fa
:040260002c0400006a
:020000040000fa
:040264002c04000066
:020000040000fa
:040268002c04000062
:020000040000fa
:04026c002c0400005e
:020000040000fa
:040270002c0400005a
:020000040000fa
:040274002c04000056
:020000040000fa
:040278002c04000052
:020000040000fa
:04027c002c0400004e
:020000040000fa
:040280002c0400004a
:020000040000fa
:040284002c04000046
:020000040000fa
:040288002c04000042
:020000040000fa
:04028c002c0400003e
:020000040000fa
:040290002c0400003a
:020000040000fa
:040294002c04000036
:020000040000fa
:040298002c04000032
:020000040000fa
:04029c002c0400002e
:020000040000fa
:0402a0002c0400002a
:020000040000fa
:0402a4002c04000026
:020000040000fa
:0402a8002c04000022
:020000040000fa
:0402ac002c0400001e
:020000040000fa
:0402b0002c0400001a
:020000040000fa
:0402b4002c04000016
:020000040000fa
:0402b8002c04000012
:020000040000fa
:0402bc002c0400000e
:020000040000fa
:0402c0002c0400000a
:020000040000fa
:0402c4002c04000006
:020000040000fa
:0402c8002c04000002
:020000040000fa
:0402cc002c040000fe
:020000040000fa
:0402d0002c040000fa
:020000040000fa
:0402d4002c040000f6
:020000040000fa
:0402d8002c040000f2
:020000040000fa
:0402dc002c040000ee
:020000040000fa
:0402e0002c040000ea
:020000040000fa
:0402e4002c040000e6
:020000040000fa
:0402e8002c040000e2
:020000040000fa
:0402ec002c040000de
:020000040000fa
:0402f0002c040000da
:020000040000fa
:0402f4002c040000d6
:020000040000fa
:0402f8002c040000d2
:020000040000fa
:0402fc002c040000ce
:020000040000fa
:040300002c040000c9
:020000040000fa
:040304002c040000c5
:020000040000fa
:040308002c040000c1
:020000040000fa
:04030c002c040000bd
:020000040000fa
:040310002c040000b9
:020000040000fa
:040314002c040000b5
:020000040000fa
:040318002c040000b1
:020000040000fa
:04031c002c040000ad
:020000040000fa
:040320002c040000a9
:020000040000fa
:040324002c040000a5
:020000040000fa
:040328002c040000a1
:020000040000fa
:04032c002c0400009d
:020000040000fa
:040330002c04000099
:020000040000fa
:040334002c04000095
:020000040000fa
:040338002c04000091
:020000040000fa
:04033c002c0400008d
:020000040000fa
:040340002c04000089
:020000040000fa
:040344002c04000085
:020000040000fa
:040348002c04000081
:020000040000fa
:04034c002c0400007d
:020000040000fa
:040350002c04000079
:020000040000fa
:040354002c04000075
:020000040000fa
:040358002c04000071
:020000040000fa
:04035c002c0400006d
:020000040000fa
:040360002c04000069
:020000040000fa
:040364002c04000065
:020000040000fa
:100400004f8520000e7f24000e01880000000000b0
:10041000000020000000e000020032000001200087
:1004200020028800140007000d0107000000e00012
:1004300003003a0080c420000100200002003700c1
:100440000000200001002000810f70000100320038
:1004500014000700000020000000e000020032004d
:100460000000020000000000d40a020000000000aa
:100470000040da000000fe004440a9000000200017
:100480000000e0000300320000002000a00188000e
:100490004440a800000006008a1f78008b1f7800e7
:1004a0000000060091018800800478000000eb0045
:1004b0001a003700e284440032a0b4009905ba0063
:1004c000e284440032a0b4009906ba00e2844400f9
:1004d00032a0b4000006eb00476fde00fd07b2005b
:1004e000636ce10003003a00ebff07000000eb0043
:1004f0000a003700606ce10004003a00005deb0088
:100500008b05e900fdff3e00040037006168e10053
:10051000010032000086eb000b00070019c7ba008b
:100520001905ba000e04e00003003a000a00e000da
:10053000e0ff3a0000000600fe07b2009e018800be
:100540008a047800f5ff3700395dba008b05e900b1
:100550000c003200295dba008b05e900080032006a
:100560000c00e00003003a00e284440032a0b40032
:10057000f5ff370019ddba008b05e900faff3a00f4
:100580008904e800e184440032a0b40000000600c1
:100590005209040000000000ce0904000000000021
:1005a000b40a040000000000a80a040000000000d3
:1005b0003600f800809fbe00829fbe00849fbe0070
:1005c000869fbe000000fa008560a9004b0307006b
:1005d0000080fb00d04088001f68ef00601680009c
:1005e0004d00de00614060000004a2006140600038
:1005f0000080fb00610060004d00dd00621680009d
:10060000f1ff2d008100610001007000601688007c
:100610000080fa004f03be004f02be004f01be0033
:100620004f00be003600f900004006003600f8001a
:10063000809fbe00829fbe00849fbe00869fbe003a
:100640000000fa0087c0a9006a0307000080fb00d1
:10065000e04088002068ef00601680004e00de0059
:10066000614060000004a200614060000080fb0067
:10067000610060004e00dd0062168000f1ff2b007b
:100680008100610001007000601688000080fa009f
:100690004f03be004f02be004f01be004f00be0020
:1006a0003600f90000400600809fbe00821f7800df
:1006b0000200fa000000eb00000f78001fc8bf0026
:1006c0000040e8001fe8b70020c8bf000040e80075
:1006d00020e8b700f18120009140780020c3b300ea
:1006e00080cf5000280036001f68ef000000eb00ac
:1006f000000f7800070037001e00780080004000df
:1007000020812000008040008040eb0001487800fc
:100710001e0fe8001e0078000000e000f6ff340025
:100720000000eb00000f7800070037001e00780083
:100730008000400080832000008040008040eb006b
:10074000014878001e0fe8001e007800e40f5000fa
:10075000f6ff3400601680004d00de00614060004e
:100760000004a200614060000080fb0061006000a6
:100770004d00dd0062168000f1ff2d008100610058
:10078000010070006016880001822000914078000e
:1007900020c3b30080cf5000280036002068ef004f
:1007a0000000eb00000f7800070037001e00780003
:1007b0008000400040812000008040008040eb002d
:1007c000014878001e0fe8001e0078000000e000dd
:1007d000f6ff34000000eb00000f78000700370040
:1007e0001e0078008000400020842000008040002f
:1007f0008040eb00014878001e0fe8001e007800e2
:10080000e40f5000f6ff3400601680004e00de005a
:10081000614060000004a200614060000080fb00b5
:10082000610060004e00dd0062168000f1ff2b00c9
:100830008100610001007000601688008460a900da
:1008400010922900100888000080fa004f017800fb
:100850004f00be00004006000040da000000fe002d
:04086000000005008f
:020000040000fa
:100864000800fa00000f780011079800220798008a
:1008740033079800218020003e0090004200dd00f4
:10088400008040000080e80011002000010878008a
:10089400218020003e0090004200dd0000804000e6
:1008a4008000eb0001087800b500370021802000ab
:1008b4003e0090004200dd000080400010007800ff
:1008c400000040001e00400022802000be00900076
:1008d400c208dd008180e8008100410091007800b9
:1008e400818040001e019000810041009100780049
:1008f400c408de00efc060008180fb00ef80600070
:10090400c408dd0090017800f2f02f00028161003c
:100914008280700001087800218020003e00900051
:100924004200dd000080400010007800000040001c
:100934001e00400022802000be009000c208dd009e
:100944008180e80081004100910078008100e80086
:10095400818040001e0190008100410091007800d8
:10096400c408de00efc060008180fb00ef806000ff
:100974009001780002ff2f000281610082807000e4
:1009840001087800218020003e0090004200dd0034
:100994000080e80000804000100078000000400063
:1009a4009e00900000804000100078004400de00ab
:1009b4006f4060008080fb00228020003e00900099
:1009c4004200dd000080e8000000410010007800d3
:1009d4000000e800000040001e01900000004100fb
:1009e400100078006f4060000080fb000100700080
:1009f400ef0f50000c003a00218020003e009000d0
:100a04004200dd000080400010007800000040003b
:100a14001e00400010017800f1df2f00810061000a
:100a2400010878000a003700218020003e00900071
:100a34004200dd000080400010007800000040000b
:100a44001e004000900078000190a000010878008a
:100a5400218020003e0090004200dd000080e8007c
:100a640000804000100078000000e8000000400012
:100a74009e00900000804000100078004400de00da
:100a84006f4060008080fb00228020003e009000c8
:100a94004200dd000080e800000041001000780002
:100aa4000080e800000040001e01900000004100aa
:100ab400100078006f4060000080fb0001007000af
:100ac400ef0f50000c003a00218020003e009000ff
:100ad4004200dd000080400010007800000040006b
:100ae4001e00400010017800f1ef2f00810061002a
:100af400010878000a003700218020003e009000a1
:100b04004200dd000080400010007800000040003a
:100b14001e004000900078000180a00001087800c9
:100b2400218020003e0090004200dd000080e800ab
:100b340000804000100078008080e80022802000bf
:100b44003e0090004200dd00000041000080e8000b
:100b540001087800218020003e0090004200dd0062
:100b640000804000100078008000e800228020000f
:100b74003e0090004200dd000000410001087800c2
:100b8400218020003e0090004200dd0000804000f3
:100b9400900078002e009000808f500043ff3500b5
:100ba400a18020003e0090004200dd000080400053
:100bb4000080e8008040eb0001487800a18020001c
:100bc4003e0090004200dd00008040000080e8000c
:100bd4008040eb00114098000080fa0000000600fd
:100be4000a00fa00000f78002147980022079800b5
:100bf40033079800440798004e009000000001005d
:100c04000004e00016003200a18020003e009000a5
:100c14004200dd00008040000080e8008040eb00de
:100c240011409800a18020003e0090004200dd00a9
:100c3400008040001100200001087800a1802000fd
:100c44003e0090004200dd00008040000080e8008b
:100c54008040eb000148780010c0b30098003700d2
:100c6400a18020003e0090004200dd000080e800ea
:100c740000804000104078000004a2000004e0005e
:100c84003c003200a18020003e0090004200dd00c4
:100c94000080e80000804000104090000080fb00cd
:100ca400000040001e004000ae4090000148780063
:100cb400a18020003e0090004200dd000080e8009a
:100cc40000804000104090000004e0001a00320050
:100cd4001e80e800100078006f006000e50f5000ef
:100ce4000d003a00a18020003e0090004200dd008b
:100cf400008040001100200001087800a18020003d
:100d04003e0090004200dd00008040000080e800ca
:100d140011c0b30001487800a18020003e0090007b
:100d24004200dd00008040000080e8008040eb00cd
:100d340011409800610037001e0078009040780050
:100d440030c5b30080cf500008003a00a1802000d5
:100d54003e0090004200dd00008040000080e8007a
:100d640011c0b300114098005400370010c0b30004
:100d740053003700a18020003e0090004200dd00b7
:100d840000804000100078008000e800a28020006d
:100d94003e0090004200dd000000410001087800a0
:100da400a18020003e0090004200dd000080400051
:100db40010007800000040001e004000ae4090008b
:100dc40001487800a18020003e0090004200dd0030
:100dd4000080400010007800000040001e00400029
:100de4009040780030c4b30080cf50001d003a001a
:100df400a18020003e0090004200dd000080400001
:100e0400100078000000e900000040001e004000cf
:100e140090007800000f2000808060000003200014
:100e2400808f50000f003a00a18020003e00900007
:100e34004200dd000080400011002000010878001d
:100e4400a18020003e0090004200dd0000804000b0
:100e54000080e8008040eb000148780020c0b30027
:100e640017003700a18020003e0090004200dd0002
:100e740000804000900078002e0090000000e900ff
:100e8400808f50000d003a00a18020003e009000a9
:100e94004200dd00008040001100200001087800bd
:100ea400a18020003e0090004200dd000080400050
:100eb4000080e8008040eb00014878000040eb002f
:100ec4000080fa00000006000600fa00000f780017
:100ed40011079800424798004e4090000004a20079
:100ee4000004e000080032009e00780030c5b30022
:100ef400010001009e00900010c0b3000100010039
:100f040050c0b30000e8b7000080fa0000000600fb
:100f14000c00fa0010079800210798003207980087
:100f240043079800540798005e0090006600b900db
:100f340080007800c082200000804000900078008b
:100f44004e009000808f50005f0032005e009000e1
:100f54006600b90080007800c08220000080400054
:100f6400100078000000e00002003a0050c0b30016
:100f740000e8b7005e0090006600b9000000780049
:100f8400e4004000c082200000804000104078004f
:100f94000004e000190032005e0090006600b90011
:100fa40080007800c082200000804000100078009b
:100fb4009e009000008040009040780000cfb30075
:100fc40000cf600000c8bf00ef4060001e40780002
:100fd40000c07000ae009000010001005e009000af
:100fe4006600b90080007800008320000080400083
:100ff4008040eb00014878007f0037005e009000dd
:101004006600b90080007800c082200000804000a3
:10101400100078009e00900000804000104078008e
:1010240000c0ea0000e8b7005e0090006600b90066
:1010340080007800c082200000804000100078000a
:101044009e00900000804000904078004000200006
:101054000008dd00004f780000c8bf000080fb00de
:101064004400de00004078001e407000ae00900096
:10107400010001005e0090006600b9008000780065
:10108400008320000080400011c0b30001487800b4
:101094005e0090006600b90080007800c0822000e5
:1010a40000804000100078000001e8005e0090001d
:1010b4006600b90080007800c082200000804000f3
:1010c400020878004c0037005e0090006600b9000a
:1010d400000078008080e800c0822000008040008a
:1010e400100078000000e00015003a0000c8bf00be
:1010f400ef40600000c3b30000c07000ae00900079
:10110400010001005e0090006600b9000000780054
:101114008080e800c0822000008040001000780039
:101124000001e8005e0090006600b90080007800cd
:10113400e082200000804000020878002e00370082
:101144005e0090006600b900000078008080e8002e
:10115400c08220000080400010007800e10f5000a1
:1011640012003a00ae00900030c4b3000100010048
:101174005e0090006600b900000078008080e800fe
:10118400c082200000804000100078000001e800c8
:101194005e0090006600b90080007800e0822000c4
:1011a4000080400002087800130037005e009000c1
:1011b4006600b90080007800e082200000804000d2
:1011c4008000eb00010878005e0090006600b90022
:1011d40080007800c0822000008040008000eb0086
:1011e40001087800be0090000040eb0001000100ff
:1011f40010c0b300010037000040eb000080fa008b
:10120400000006000000fa001628ef000a0037006c
:10121400b0408000218020004200dd0000804000ba
:101224000080e8001100200001087800b040800030
:101234000000e800b0408800b0408000e10f50009a
:10124400f3ff34001628ef0010003700b040800090
:10125400a18020004200dd00008040001100200039
:1012640001087800b04080006600b9008000780072
:10127400008320000080400011c0b30001487800c2
:10128400b04080000000e800b0408800b04080001a
:10129400e10f5000edff34000080fa00000006006a
:1012a4000200fa0010118000640060000000e000f9
:1012b40004003a0010118000620060000000e000a9
:1012c4000a00320030118000004f78008080200036
:1012d40000118800000022001011880021e2a800fb
:1012e4002342a80010c0b300010037000040eb0007
:1012f4000080fa00000006000200fa000040eb0043
:10130400004f780030118000104798002495200089
:101314008001eb00520020009e409000808320005a
:101324002ffe0700e14f500002003a002768ef004b
:101334000300370027c8bf000040e80027e8b700d3
:1013440027c8bf00e54f500002003a002a68ef00aa
:101354002768ef002ac8bf000080fa0000000600da
:101364000000fa002ac8bf000004a2000004e00044
:101374000700320010c0b3002ae8b7008001eb0078
:1013840012002000818320002081200034fd07000a
:101394000080fa00000006000200fa0090118000ac
:1013a400640060000000e00004003a009011800036
:1013b400620060000000e0000a003200b01180000a
:1013c400004f7800808020008011880000002200f7
:1013d4009011880031e2a8003342a80010c0b30085
:1013e400010037000040eb000080fa000000060016
:1013f4000200fa000040eb00004f7800b0118000ba
:1014040010479800e49c20001300200052002000a4
:101414009e40900020842000f1fd0700e14f500021
:1014240002003a002668ef000300370026c8bf0018
:101434000040e80026e8b70026c8bf00e54f50008a
:1014440002003a002a68ef002668ef002ac8bf00ad
:101454000080fa00000006000000fa002ac8bf005d
:101464000004a2000004e0000700320010c0b30032
:101474002ae8b70013002000120020002184200075
:1014840040812000f6fc07000080fa0000000600fe
:101494000400fa00204798000040eb00004f780059
:1014a40023c8bf000004e000260032002e40900054
:1014b4000004a2000004e000120032002bc8bf00a8
:1014c4000004e0000f0032002b68ef00a00480004d
:1014d4004c00de00614060000080fb0000f0a700cb
:1014e4000000ea000000ea004f00de00004078003f
:1014f4000041780041ab200080aa200072fe070062
:10150400100037002e4090000004e0000d0032006f
:101514000002eb008300200042ab200081aa2000df
:10152400c08420007afe0700004f78001e40780037
:101534000004e000030032002368ef0010c0b30091
:101544002be8b7000080fa00000006000200fa0051
:10155400004f78001e80fb00201188000080fa00f4
:10156400000006000200fa00004f78001e80fb0015
:10157400610060004c00dd00a2048000f1ff2e0039
:101584008100610001007000a00488000080fa005e
:10159400000006000000fa002268ef000080fa0054
:1015a400000006000400fa00000f780011079800fc
:1015b400280007006aff0700a7ff0700904080008b
:1015c400614060000080fb00610060004b00dd00b2
:1015d40062168000f17f2f0081006100010070001d
:1015e40060168800a0408000614060000080fb001d
:1015f400610060004c00dd0062168000f1ff2e00e7
:1016040081006100010070006016880012c8bf00ec
:10161400e14f500009003a0014c8bf00e14f5000e8
:1016240006003a00cd42a800c462a800cc82a800fb
:10163400cca2a800c482a800deff3700cd42a900d6
:10164400c462a900cc82a900cca2a900c482a900ca
:10165400d8ff37000000fa00eafe0700200120004e
:10166400403a880060022000303a8800213a800025
:1016740000fe2f0000806000203a8800213a80009c
:10168400f0f32f0000806000203a88001200200050
:1016940080072000a10920003374200080497800cd
:1016a40081497800824978001200200060042000fb
:1016b4007105200023742000804978008149780056
:1016c4008249780000000000113a800000002700e1
:1016d4008080600000002100808f5000faff3a00f3
:1016e40000000000113a8000000220000080600029
:1016f4000000e000fbff320011028000f0f12f0037
:1017040000806000100288004460a90081e0a90004
:1017140083e0a9009560a80097c0a8009460a80081
:101724009105800000702000010070009005880081
:1017340041058000f0ff2800808060000000260042
:10174400010070004005880021058000f0ff28009a
:1017540080806000000025000100700020058800e2
:10176400c842a900c862a900c9e2a80021358000c6
:1017740000fe2f0000806000f000b30020358800d8
:10178400c8e2a8003135800000fe2f000080600010
:101794007000b30030358800c942a900c962a900ad
:1017a400c982a900c9a2a900c9c2a900c062a9002e
:1017b400c082a900c882a900c8a2a9000080eb00c9
:1017c4006019880080802000001188000000220039
:1017d400101188008560a900500a2000401188007b
:1017e40021e2a800808020008011880000002200ef
:1017f4009011880087c0a900500a2000c0118800f9
:1018040031e2a80005e1a8000441a90020088000f5
:101814004200de00614060000080fb006100600067
:101824004600dd0022088000f1fb2f0081006100ea
:101834000100700020088800200880004600de00b7
:10184400614060000080fb00610060000000400017
:1018540022088000d1ff2f00810061000100700088
:101864002008880005a1a90021088000f0fc2f00b1
:1018740000806000200888000021ef0010922900f9
:0c188400100888000080fa000000060038
:020000040000fa
:101890002808000002000000020000008001000093
:1018a000180800000a000000000000002c080000da
:1018b00028000000000000000008000018000000e0
:1018c000000000002a0800000200000002000000e2
:1018d00001010000220800000600000000000000d6
:0418e0000000000004
:020000040000fa
:0200000401f009
:04000000ffff0000fe
:020000040000fa
:0200000401f009
:04000400ffff0000fa
:020000040000fa
:0200000401f009
:04000800ffff0000f6
:020000040000fa
:0200000401f009
:04000c008000000070
:020000040000fa
:0200000401f009
:0400100043000000a9
:020000040000fa
:0200000401f009
:040014005f00000089
:020000040000fa
:0200000401f009
:04001800970000004d
:020000040000fa
:0200000401f009
:04001c00dfff000002
:00000001FF
