:0400000080316328C0
:100008007E14803140017F08FD000B1F23284E011C
:10001800991B8F1F232854011908FC007C08F00045
:100028000530F1000030F2000130F3000030F40038
:100038003E308331142380314E018F175E280B1F09
:100048003F284E01191B0F1F3F287730F400053059
:10005800F5006A30F6000530F7000430F80000308B
:10006800F9000030FA00FB0043308131CD218031A6
:100078004E010F135E280B1F58284E01991A8F1E28
:10008800582842011908FC007C08F0000530F100EE
:100098000030F2000030F300F400393083311423CB
:1000A80080314E018F165E280B1F5E284E01191EE7
:1000B8005E280F087D084001FF007E10090080318E
:1000C800652820308400003085002B30853171256B
:1000D8007E1040018431EB2C4001DC005508D7002C
:1000E8000130D735FF3E031D75285735023E203EA7
:1000F800860087010130C03F0030C13F5508D70056
:100108000130D735FF3E031D85285735203E860030
:1001180087010030C03FC13F5508D7000130D735AF
:10012800FF3E031D93285735203E86008701403F38
:10013800D800413FD9005908803ADA005408803A7B
:100148005A02031DA9285308580203180800400141
:100158005508D7000130D735FF3E031DAF28573566
:10016800023E203E8600870101085207D800580841
:1001780086008701010E0F39D9005508DA000130D1
:10018800DA35FF3E031DC4285A35203E8600870114
:1001980001355C07DB005B0886008701D90E010882
:1001A80059060F39590681005508D7000130D7354F
:1001B800FF3E031DDB285735023E203E860087019F
:1001C8000108013E5207D800580886008701010E31
:1001D8000F39D9005508DA000130DA35FF3E031D22
:1001E800F1285A35203E8600870101355C07DB007F
:1001F8005B088600870101085906F0395906810015
:100208005508D7000130D735FF3E031D072957355C
:10021800023E203E8600870101085207D800580890
:1002280086008701010E0F39D9005508DA00013020
:10023800DA35FF3E031D1C295A35023E203E860052
:1002480087010108013E5207DB005B088600870131
:1002580001080F3959040F3A031D45295508D700DD
:100268000130D735FF3E031D35295735203E86001E
:10027800870101355C07D800580A860087010110FC
:1002880057295508D7000130D735FF3E031D4829A7
:100298005735203E8600870101355C07D800580A8B
:1002A8008600870101145508D7000130D735FF3E75
:1002B800031D5A295735023E203E86008701010852
:1002C800013E5207D800580886008701010E0F39F1
:1002D800D9005508DA000130DA35FF3E031D7029D0
:1002E8005A35023E203E860087010108023E520729
:1002F800DB005B088600870101080F3959040F3AB3
:10030800031D99295508D7000130D735FF3E031D35
:1003180089295735203E8600870101355C07D800BA
:10032800580A860087018110AB295508D70001308B
:10033800D735FF3E031D9C295735203E860087018F
:1003480001355C07D800580A8600870181145508D2
:10035800D7000130D735FF3E031DAE295735023E81
:10036800203E860087010230810741310318810A47
:100378005508D7000130D735FF3E031DBF29573533
:10038800203E860087010130810741310318810A28
:1003980090284001D100CF01D0010530CB004B0897
:1003A800F0007A08853150258131303E860087017A
:1003B800403F4001CC00413FCD0079084D06031D68
:1003C800E72978084C0603198F2A0530CB004B081B
:1003D800F0007A08853150258131043E303E860090
:1003E80087010103031D2B2A05304001CB004B0870
:1003F800F0007A08853150258131303E860087012A
:10040800403F4001CF00413FD0000F303805CB00BE
:100418004F085107CC004C08860087010108F039C5
:100428004B04CD004D08F00075088A0074080A00D6
:10043800823105304001CB004B08F0007A08853145
:100448005025043E303E86008701810108000530B2
:100458004001CB004B08F0007A08853150258131E6
:10046800303E86008701010840015107CC004C0846
:10047800860087010109CD004D08B8000530CB0082
:100488004B08F0007A08853150258131303E8600CE
:100498008701403F4001CF00413FD0003808CB00E2
:1004A8000430CB36890B552A4F085107CC004C082D
:1004B800860087010108CD000330CD35FF3E031DBE
:1004C800612A4D354B04CE004E08F00075088A00AD
:1004D80074080A00823105304001CB004B08F00057
:1004E8007A08853150258131043E303E86008701E7
:1004F8008101810A05304001CB004B08F0007A08E1
:1005080085315025303E8600870101308107413111
:100518000318810A080005304001CB004B08F000A1
:100528007A08853150258131023E303E86008701A8
:1005380016000104031DBE2A400138080F3930385F
:10054800CB004B08F00075088A0074080A00823155
:1005580005304001CB004B08F0007A088531502562
:10056800023E303E86008701013081074131031881
:10057800810A080005304001CB004B08F0007A08DA
:10058800853150258131023E303E860087011600B4
:10059800013A4001CC001600CC04031DEE2A43307A
:1005A800CB004B08F00075088A0074080A008231F5
:1005B80005304001CB004B08F0007A088531502502
:1005C800023E303E86008701013081074131031821
:1005D800810A080005304001CB004B08F0007A087A
:1005E800853150258131023E303E8600870100303A
:1005F800C03FC13F05304001CB004B08F0007A08EE
:10060800853150258131303E860087010030C03F5A
:10061800C13FF00177088A0076080A008331080094
:10062800FA007308F5000130F535FF3E031D182B5D
:100638007535023E283E860087010108031D832B7D
:100648007008F5007308F6000130F635FF3E031D0B
:10065800292B7635033E283E8600870101087A0754
:10066800F700770886008701750881007308F50090
:100678000130F535FF3E031D3D2B7535033E283E01
:10068800860087010103031D6D2B7A0A8600870106
:1006980001080F39053A031D5F2B7308F500013077
:1006A800F535FF3E031D542B7535023E283E860066
:1006B80087018101810A7308F5000130F535FF3E95
:1006C800031D622B7535033E283E86008701810194
:1006D80008007A088600870153300106031D0800C8
:1006E8007308F5000130F535FF3E031D772B75358E
:1006F800033E283E860087018101810A08007308AD
:10070800F5000130F535FF3E031D862B7535283E73
:10071800860087010130810741310318810A70087A
:10072800F5007308F6000130F635FF3E031D982BDF
:100738007635283E8600870101087A07F700770892
:1007480086008701750881007308F5000130F535CA
:10075800FF3E031DAB2B7535283E86008701010837
:100768007A07F60076088600870143300106031DE4
:10077800F12B7308F5000130F535FF3E031DC02B42
:100788007535283E860087010108FF3E7A07F60086
:10079800760886008701010E0F39033A031DF12BF5
:1007A8007308F5000130F535FF3E031DD72B75356D
:1007B800283E860087010130C03F0030C13F7308E2
:1007C800F5000130F535FF3E031DE62B7535023E79
:1007D800283E86008701810108007308F500013072
:1007E800F535FF3E031DF42B7535283E860087013D
:1007F800403FF600413FF7007108FF3EF800FF3028
:10080800723DF90077087906031D0C2C76087806E6
:10081800031D08007308F5000130F535FF3E031D80
:10082800112C7535283E860087010130C03F003005
:10083800C13F7308F5000130F535FF3E031D202C3C
:100848007535023E283E8600870181010800400177
:100858009C019B01980199019A0107309600FF308D
:100868009200FF309300F8309400FD309500151782
:100878007E01CE01C301D901E401B801DA01E50125
:10088800C401B901CF01E601BA01C501D001DB01FC
:100898003F103E143D14083054019F0090309D00D5
:1008A80024309E008A309B009C01083042019F0042
:1008B80090309D0024309E008A309B009C010B17CD
:1008C8004E019917991600308B1B01304001D20058
:1008D8008B1755307D018F00AA308F000F104B0801
:1008E800C0390838CB004D08C0391F38CD00553005
:1008F8008F00AA308F000F148B17603051018D00C4
:100908008F01910106309300900192010800400187
:10091800B501B6013608803AD60080305602031D6C
:10092800972C023035020318B92C40013508D6003F
:100938000130D635FF3E031D9D2C5635023E203E24
:10094800860087010130C03F0030C13F0130B50744
:100958000030B63D3608803AD60080305602031D76
:10096800B72C02303502031C992C4001B501B601A1
:100978003608803AD60080305602031DC52C013057
:1009880035020318080040013508D6000130D63575
:10099800FF3E031DCB2C5635283E860087010130CB
:1009A800C03F0030C13F0530D6005608D200350898
:1009B80085313E258431043E303E86008701810121
:1009C800810A01304001B5070030B63DBC2C40011A
:1009D800DE01DF01510110140630930084318B24AD
:1009E800843184312B24843140011A109A108531C6
:1009F80061258431400198151514151740014703E6
:100A0800031D0C2D4903031D0C2D9A141B14132DC3
:100A18004708031D4908031D132D9A101B10470C86
:100A2800031C1A1003181A14490C031C1A11031872
:100A38001A153930DD005D08D2000130D3000030CE
:100A4800D4000030D500D600473080317020843182
:100A58003E304001DD005D08D2000130D300003097
:100A6800D4000130D5000030D600493080317020E4
:100A78008431022D4001D500D401551C472D520860
:100A8800D3005308D4070310D20D0310D50C550812
:100A9800031D412D54080800F200F301721C582D63
:100AA8007008F1007108F3070310F00D0310F20C41
:100AB8007208031D522D7308080044018E010E159B
:100AC8008F019001013091000E140800700C4E0146
:100AD800031C191303181917080064008001013159
:0E0AE800890B722D0034700854019A0008002A
:020000040001F9
:0A000E008C173E279F3FFF1FFF3FA6
:00000001FF
